:020000040800F2
:100000000808002089010008F5010008F501000832
:10001000F5010008F5010008F501000800000000E6
:10002000000000000000000000000000F5010008D2
:10003000F501000800000000F5010008F5010008C6
:10004000F5010008F5010008F5010008F5010008B8
:10005000F5010008F5010008F5010008F5010008A8
:10006000F5010008F5010008F5010008F501000898
:10007000F5010008F5010008F5010008F501000888
:10008000F5010008F5010008F5010008F501000878
:10009000F5010008F5010008F5010008F501000868
:1000A000F5010008F5010008F5010008F501000858
:1000B000F5010008F5010008F5010008F501000848
:1000C000F5010008F5010008F5010008F501000838
:1000D000F5010008F5010008F5010008F501000828
:1000E000F5010008F5010008F5010008F501000818
:1000F000F5010008F5010008F5010008F501000808
:10010000F5010008F5010008F5010008F5010008F7
:10011000F5010008F5010008F5010008F5010008E7
:10012000F5010008F5010008F5010008F5010008D7
:10013000F5010008F5010008F5010008F5010008C7
:10014000F5010008F5010008F5010008F5010008B7
:10015000F5010008F5010008F5010008F5010008A7
:10016000F5010008F5010008F5010008F501000897
:10017000F5010008F5010008F5010008F501000887
:10018000F5010008F501000880B582B000AF40F22B
:10019000A043C0F600037B6040F20003C2F20003FC
:1001A0003B600BE07B681A683B681A603B6803F1B0
:1001B00004033B607B6803F104037B603A6840F210
:1001C0000003C2F200039A42ECD3084808494FF0FA
:1001D00000028842B8BF40F8042BFFF6FAAF00F0E7
:1001E0005BF807F10807BD4680BD00000000002055
:1001F0000800002080B400AFFEE700BF80B500AF6C
:100200004FF004004FF0010100F062F840F20003EB
:10021000C2F200034FF040021A6040F20003C2F243
:1002200000034FF001021A7140F20003C2F2000312
:100230004FF000029A7140F20003C2F200034FF047
:1002400003025A7140F20003C2F200034FF00002B1
:10025000DA714FF40060C4F2020040F20001C2F211
:10026000000100F05FF84FF40060C4F202004FF0AC
:10027000400100F0F9F847F6FF7000F013F84FF472
:100280000060C4F202004FF0400100F0FBF847F6B6
:10029000FF7000F007F8E6E780B500AFFFF7AEFFAC
:1002A00080BD00BF80B483B000AF786000BF7B68C2
:1002B000002B0CBF00220122D2B203F1FF337B607E
:1002C000002AF4D107F10C07BD4680BC704700BF7F
:1002D00080B483B000AF78600B46FB70FB78002BD6
:1002E0000CD04FF46053C4F202034FF46052C4F2D6
:1002F0000202116B7A680A431A630DE04FF46053EF
:10030000C4F202034FF46052C4F20202116B7A6825
:100310006FEA02020A401A6307F10C07BD4680BC6F
:10032000704700BF80B487B000AF786039604FF08D
:1003300000037B614FF000033B614FF00003FB6063
:100340004FF000037B6186E07B694FF0010202FA07
:1003500003F33B613B681A683B691340FB60FA6832
:100360003B699A4273D17B681A687B694FEA430301
:100370004FF0030101FA03F36FEA03031A407B68AD
:100380001A607B681A683B681B7919467B694FEADB
:10039000430301FA03F31A437B681A603B681B7935
:1003A000012B03D03B681B79022B34D17B689A6800
:1003B0007B694FEA43034FF0030101FA03F36FEA4D
:1003C00003031A407B689A607B689A683B685B7994
:1003D00019467B694FEA430301FA03F31A437B682A
:1003E0009A607B685A687B699BB24FF0010101FA01
:1003F00003F36FEA03031A407B685A607B685A680C
:100400003B689B7919467B699BB201FA03F39BB267
:100410001A437B685A607B68DA687B699BB24FEA53
:1004200043034FF0030101FA03F36FEA03031A4099
:100430007B68DA607B68DA683B68DB7919467B6940
:100440004FEA430301FA03F31A437B68DA607B69DE
:1004500003F101037B617B690F2B7FF675AF07F119
:100460001C07BD4680BC704780B483B000AF786085
:100470000B467B807B687A881A8307F10C07BD46A0
:1004800080BC704780B483B000AF78600B467B803F
:100490007B687A885A8307F10C07BD4680BC704799
:0400000508000000EF
:00000001FF
